:020000040800F2
:1000000000040020010100082D030008A5020008DB
:100010002903000881010008E9040008000000002D
:10002000000000000000000000000000990300082C
:1000300085010008000000002F0300088504000867
:100040001B0100081B0100081B0100081B01000820
:100050001B0100081B0100081B0100081B01000810
:100060001B0100081B0100081B0100081B01000800
:100070001B0100081B0100081B0100081B010008F0
:100080001B0100081B0100081B0100081B010008E0
:100090001B0100081B0100081B0100081B010008D0
:1000A0001B0100081B0100081B0100081B010008C0
:1000B0001B0100081B0100081B0100081B010008B0
:1000C0001B0100081B0100081B0100081B010008A0
:1000D0001B0100081B0100081B0100081B01000890
:1000E0001B0100081B0100081B010008DFF80CD0F1
:1000F00000F02AF8004800471D0500080004002011
:100100000648804706480047FEE7FEE7FEE7FEE7B1
:10011000FEE7FEE7FEE7FEE7FEE7FEE789040008EC
:10012000ED00000840EA01039B0703D009E008C97D
:10013000121F08C0042AFAD203E011F8013B00F8AC
:10014000013B521EF9D27047064C074D06E0E068AD
:1001500040F0010394E8070098471034AC42F6D30E
:10016000FFF7C8FF800500089005000803484068B5
:1001700040F00070014948607047000000000140F5
:1001800000BFFEE770472DE9F0410246002500263A
:10019000002000230024002791F803C00CF00F0575
:1001A00091F803C00CF0100CBCF1000F03D091F8D3
:1001B00002C04CEA050591F800C0BCF1000F31D037
:1001C000146800202BE04FF0010C0CFA00F3B1F89A
:1001D00000C00CEA03069E4220D183004FF00F0CB2
:1001E0000CFA03F7BC4305FA03FC4CEA040491F84B
:1001F00003C0BCF1280F06D14FF0010C0CFA00FC33
:10020000C2F814C00AE091F803C0BCF1480F05D150
:100210004FF0010C0CFA00FCC2F810C0401C08287A
:10022000D1D31460B1F800C0BCF1FF0F34DD5468C5
:1002300000202EE000F1080C4FF0010808FA0CF342
:10024000B1F800C00CEA03069E4221D183004FF0B2
:100250000F0C0CFA03F7BC4305FA03FC4CEA040448
:1002600091F803C0BCF1280F05D100F1080C08FA81
:100270000CF8C2F8148091F803C0BCF1480F07D104
:1002800000F1080C4FF0010808FA0CF8C2F81080D1
:10029000401C0828CED35460BDE8F081416170470E
:1002A0000161704700BFFEE710B50121402000F05A
:1002B0003FF80121082000F03BF80121084600F03A
:1002C00037F810BD10B58AB0002420220C4902A8CE
:1002D000FFF728FF10208DF8070003208DF8060097
:1002E0000AE002A830F8240080B2ADF8040001A9A9
:1002F0000448FFF748FF641C072CF2D90AB010BD70
:10030000500500080018014010B5044624B9082122
:100310000448FFF7C5FF03E008210248FFF7BEFFCE
:1003200010BD0000000C014000BFFEE770477047A1
:1003300029B1064A92690243044B9A6104E0034AD8
:1003400092698243014B9A6170470000001002409D
:1003500010B586B000240E4B0FCBCDE90423CDE9B8
:10036000020110208DF8070003208DF806000AE036
:1003700002A830F8240080B2ADF8040001A90548B5
:10038000FFF701FF641C032CF2D906B010BD00007A
:1003900070050008000C0140704710B500F002F82D
:1003A00010BD00000CB5002001900090334800689B
:1003B00040F480303149086000BF3048006800F4E4
:1003C000003000900198401C0190009818B90198E5
:1003D000B0F5A06FF1D12948006800F4003010B1E9
:1003E0000120009001E0002000900098012843D1F6
:1003F0002348006840F01000214908600846006862
:1004000020F0030008600846006840F00200086021
:100410001A484068194948600846406848600846DC
:10042000406840F4806048600846406820F47C10D2
:1004300048600846406840F4E81048600846006894
:1004400040F08070086000BF0C48006800F0007049
:100450000028F9D00948406820F0030007494860A7
:100460000846406840F00200486000BF034840680A
:1004700000F00C000828F9D10CBD0000001002406B
:10048000002002407047000010B51348006840F09B
:1004900001001149086008464068104908400E49AB
:1004A0004860084600680E4908400B490860084645
:1004B000006820F4802008600846406820F4FE00B0
:1004C00048604FF41F008860FFF767FF4FF000603F
:1004D0000449086010BD0000001002400000FFF851
:1004E000FFFFF6FE08ED00E000BFFEE702E008C8EF
:1004F000121F08C1002AFAD170477047002001E09E
:1005000001C1121F002AFBD170474FF4DE2000BF4B
:100510000100A0F10100FBD170470000FFF7C4FE0D
:10052000FFF724FEFFF7CEFEFFF712FF0020FFF7D4
:10053000EBFE09E0FFF7E9FF0448006808B9012075
:1005400000E0002001490860F4E70000A801234210
:10055000000100000002000000040000000800008C
:10056000001000000020000000400000008000009B
:10057000010000000200000004000000080000006C
:10058000900500080000002000040000FC040008A2
:04000005080000ED02
:00000001FF
